{
  "_format": "hh-sol-artifact-1",
  "contractName": "VeilFaucet",
  "sourceName": "contracts/VeilFaucet.sol",
  "abi": [
    {
      "inputs": [
        {
          "internalType": "address",
          "name": "_usdc",
          "type": "address"
        }
      ],
      "stateMutability": "nonpayable",
      "type": "constructor"
    },
    {
      "anonymous": false,
      "inputs": [
        {
          "indexed": true,
          "internalType": "address",
          "name": "user",
          "type": "address"
        },
        {
          "indexed": false,
          "internalType": "uint256",
          "name": "amount",
          "type": "uint256"
        }
      ],
      "name": "Claimed",
      "type": "event"
    },
    {
      "inputs": [],
      "name": "CLAIM_AMOUNT",
      "outputs": [
        {
          "internalType": "uint256",
          "name": "",
          "type": "uint256"
        }
      ],
      "stateMutability": "view",
      "type": "function"
    },
    {
      "inputs": [],
      "name": "claim",
      "outputs": [],
      "stateMutability": "nonpayable",
      "type": "function"
    },
    {
      "inputs": [],
      "name": "faucetBalance",
      "outputs": [
        {
          "internalType": "uint256",
          "name": "",
          "type": "uint256"
        }
      ],
      "stateMutability": "view",
      "type": "function"
    },
    {
      "inputs": [],
      "name": "owner",
      "outputs": [
        {
          "internalType": "address",
          "name": "",
          "type": "address"
        }
      ],
      "stateMutability": "view",
      "type": "function"
    },
    {
      "inputs": [],
      "name": "usdc",
      "outputs": [
        {
          "internalType": "contract IERC20",
          "name": "",
          "type": "address"
        }
      ],
      "stateMutability": "view",
      "type": "function"
    }
  ],
  "bytecode": "0x60c060405234801561000f575f80fd5b50604051610825380380610825833981810160405281019061003191906100fd565b8073ffffffffffffffffffffffffffffffffffffffff1660808173ffffffffffffffffffffffffffffffffffffffff16815250503373ffffffffffffffffffffffffffffffffffffffff1660a08173ffffffffffffffffffffffffffffffffffffffff168152505050610128565b5f80fd5b5f73ffffffffffffffffffffffffffffffffffffffff82169050919050565b5f6100cc826100a3565b9050919050565b6100dc816100c2565b81146100e6575f80fd5b50565b5f815190506100f7816100d3565b92915050565b5f602082840312156101125761011161009f565b5b5f61011f848285016100e9565b91505092915050565b60805160a0516106c861015d5f395f6103b301525f818160de01528181610182015281816101aa015261028301526106c85ff3fe608060405234801561000f575f80fd5b5060043610610055575f3560e01c80631720f5d214610059578063270ef385146100775780633e413bee146100955780634e71d92d146100b35780638da5cb5b146100bd575b5f80fd5b6100616100db565b60405161006e91906103ed565b60405180910390f35b61007f610179565b60405161008c91906103ed565b60405180910390f35b61009d610180565b6040516100aa9190610480565b60405180910390f35b6100bb6101a4565b005b6100c56103b1565b6040516100d291906104b9565b60405180910390f35b5f7f000000000000000000000000000000000000000000000000000000000000000073ffffffffffffffffffffffffffffffffffffffff166370a08231306040518263ffffffff1660e01b815260040161013591906104b9565b602060405180830381865afa158015610150573d5f803e3d5ffd5b505050506040513d601f19601f820116820180604052508101906101749190610500565b905090565b622dc6c081565b7f000000000000000000000000000000000000000000000000000000000000000081565b622dc6c07f000000000000000000000000000000000000000000000000000000000000000073ffffffffffffffffffffffffffffffffffffffff166370a08231306040518263ffffffff1660e01b815260040161020191906104b9565b602060405180830381865afa15801561021c573d5f803e3d5ffd5b505050506040513d601f19601f820116820180604052508101906102409190610500565b1015610281576040517f08c379a000000000000000000000000000000000000000000000000000000000815260040161027890610585565b60405180910390fd5b7f000000000000000000000000000000000000000000000000000000000000000073ffffffffffffffffffffffffffffffffffffffff1663a9059cbb33622dc6c06040518363ffffffff1660e01b81526004016102df9291906105a3565b6020604051808303815f875af11580156102fb573d5f803e3d5ffd5b505050506040513d601f19601f8201168201806040525081019061031f91906105ff565b61035e576040517f08c379a000000000000000000000000000000000000000000000000000000000815260040161035590610674565b60405180910390fd5b3373ffffffffffffffffffffffffffffffffffffffff167fd8138f8a3f377c5259ca548e70e4c2de94f129f5a11036a15b69513cba2b426a622dc6c06040516103a791906103ed565b60405180910390a2565b7f000000000000000000000000000000000000000000000000000000000000000081565b5f819050919050565b6103e7816103d5565b82525050565b5f6020820190506104005f8301846103de565b92915050565b5f73ffffffffffffffffffffffffffffffffffffffff82169050919050565b5f819050919050565b5f61044861044361043e84610406565b610425565b610406565b9050919050565b5f6104598261042e565b9050919050565b5f61046a8261044f565b9050919050565b61047a81610460565b82525050565b5f6020820190506104935f830184610471565b92915050565b5f6104a382610406565b9050919050565b6104b381610499565b82525050565b5f6020820190506104cc5f8301846104aa565b92915050565b5f80fd5b6104df816103d5565b81146104e9575f80fd5b50565b5f815190506104fa816104d6565b92915050565b5f60208284031215610515576105146104d2565b5b5f610522848285016104ec565b91505092915050565b5f82825260208201905092915050565b7f46617563657420656d70747900000000000000000000000000000000000000005f82015250565b5f61056f600c8361052b565b915061057a8261053b565b602082019050919050565b5f6020820190508181035f83015261059c81610563565b9050919050565b5f6040820190506105b65f8301856104aa565b6105c360208301846103de565b9392505050565b5f8115159050919050565b6105de816105ca565b81146105e8575f80fd5b50565b5f815190506105f9816105d5565b92915050565b5f60208284031215610614576106136104d2565b5b5f610621848285016105eb565b91505092915050565b7f5472616e73666572206661696c656400000000000000000000000000000000005f82015250565b5f61065e600f8361052b565b91506106698261062a565b602082019050919050565b5f6020820190508181035f83015261068b81610652565b905091905056fea264697066735822122021aa12b156c73384a675176162b6be5d9b97d71be00f3f5a3eb76b53a4bb296f64736f6c63430008190033",
  "linkReferences": {},
  "deployedLinkReferences": {}
}