{
  "_format": "hh-sol-artifact-1",
  "contractName": "VeilDataMarket",
  "sourceName": "contracts/VeilDataMarket.sol",
  "abi": [
    {
      "inputs": [
        {
          "internalType": "address",
          "name": "_usdc",
          "type": "address"
        },
        {
          "internalType": "address",
          "name": "_poolAddress",
          "type": "address"
        }
      ],
      "stateMutability": "nonpayable",
      "type": "constructor"
    },
    {
      "inputs": [
        {
          "internalType": "int32",
          "name": "value",
          "type": "int32"
        }
      ],
      "name": "SecurityZoneOutOfBounds",
      "type": "error"
    },
    {
      "anonymous": false,
      "inputs": [
        {
          "indexed": true,
          "internalType": "bytes32",
          "name": "listingId",
          "type": "bytes32"
        },
        {
          "indexed": false,
          "internalType": "uint256",
          "name": "amount",
          "type": "uint256"
        }
      ],
      "name": "DataPurchased",
      "type": "event"
    },
    {
      "anonymous": false,
      "inputs": [
        {
          "indexed": true,
          "internalType": "bytes32",
          "name": "listingId",
          "type": "bytes32"
        },
        {
          "indexed": true,
          "internalType": "address",
          "name": "seller",
          "type": "address"
        },
        {
          "indexed": false,
          "internalType": "uint256",
          "name": "price",
          "type": "uint256"
        }
      ],
      "name": "ListingCreated",
      "type": "event"
    },
    {
      "anonymous": false,
      "inputs": [
        {
          "indexed": true,
          "internalType": "bytes32",
          "name": "listingId",
          "type": "bytes32"
        }
      ],
      "name": "ListingDeactivated",
      "type": "event"
    },
    {
      "anonymous": false,
      "inputs": [
        {
          "indexed": true,
          "internalType": "bytes32",
          "name": "listingId",
          "type": "bytes32"
        }
      ],
      "name": "PreviewRequested",
      "type": "event"
    },
    {
      "anonymous": false,
      "inputs": [
        {
          "indexed": true,
          "internalType": "bytes32",
          "name": "listingId",
          "type": "bytes32"
        },
        {
          "indexed": false,
          "internalType": "uint256",
          "name": "newPrice",
          "type": "uint256"
        }
      ],
      "name": "PriceUpdated",
      "type": "event"
    },
    {
      "anonymous": false,
      "inputs": [
        {
          "indexed": true,
          "internalType": "bytes32",
          "name": "listingId",
          "type": "bytes32"
        },
        {
          "indexed": false,
          "internalType": "uint8",
          "name": "score",
          "type": "uint8"
        }
      ],
      "name": "SellerRated",
      "type": "event"
    },
    {
      "inputs": [],
      "name": "PLATFORM_FEE",
      "outputs": [
        {
          "internalType": "uint256",
          "name": "",
          "type": "uint256"
        }
      ],
      "stateMutability": "view",
      "type": "function"
    },
    {
      "inputs": [
        {
          "internalType": "bytes32",
          "name": "listingId",
          "type": "bytes32"
        },
        {
          "internalType": "bytes32",
          "name": "blobHash",
          "type": "bytes32"
        },
        {
          "internalType": "uint256",
          "name": "price",
          "type": "uint256"
        },
        {
          "internalType": "bytes32",
          "name": "metadataHash",
          "type": "bytes32"
        },
        {
          "internalType": "bytes32",
          "name": "category",
          "type": "bytes32"
        },
        {
          "internalType": "uint256",
          "name": "rowCount",
          "type": "uint256"
        },
        {
          "internalType": "bytes32",
          "name": "schemaHash",
          "type": "bytes32"
        },
        {
          "internalType": "bytes32",
          "name": "previewBlobHash",
          "type": "bytes32"
        }
      ],
      "name": "createListing",
      "outputs": [],
      "stateMutability": "nonpayable",
      "type": "function"
    },
    {
      "inputs": [
        {
          "internalType": "bytes32",
          "name": "listingId",
          "type": "bytes32"
        }
      ],
      "name": "deactivateListing",
      "outputs": [],
      "stateMutability": "nonpayable",
      "type": "function"
    },
    {
      "inputs": [
        {
          "internalType": "bytes32",
          "name": "listingId",
          "type": "bytes32"
        }
      ],
      "name": "getEncTotalPurchased",
      "outputs": [
        {
          "internalType": "euint128",
          "name": "",
          "type": "bytes32"
        }
      ],
      "stateMutability": "view",
      "type": "function"
    },
    {
      "inputs": [
        {
          "internalType": "bytes32",
          "name": "listingId",
          "type": "bytes32"
        }
      ],
      "name": "getListingInfo",
      "outputs": [
        {
          "internalType": "address",
          "name": "seller",
          "type": "address"
        },
        {
          "internalType": "uint256",
          "name": "price",
          "type": "uint256"
        },
        {
          "internalType": "bool",
          "name": "active",
          "type": "bool"
        },
        {
          "internalType": "uint256",
          "name": "_purchaseCount",
          "type": "uint256"
        }
      ],
      "stateMutability": "view",
      "type": "function"
    },
    {
      "inputs": [
        {
          "internalType": "bytes32",
          "name": "listingId",
          "type": "bytes32"
        }
      ],
      "name": "getMyPurchase",
      "outputs": [
        {
          "internalType": "ebool",
          "name": "",
          "type": "bytes32"
        }
      ],
      "stateMutability": "view",
      "type": "function"
    },
    {
      "inputs": [
        {
          "internalType": "address",
          "name": "seller",
          "type": "address"
        }
      ],
      "name": "getSellerRating",
      "outputs": [
        {
          "internalType": "uint256",
          "name": "total",
          "type": "uint256"
        },
        {
          "internalType": "uint256",
          "name": "count",
          "type": "uint256"
        }
      ],
      "stateMutability": "view",
      "type": "function"
    },
    {
      "inputs": [
        {
          "internalType": "bytes32",
          "name": "listingId",
          "type": "bytes32"
        },
        {
          "internalType": "address",
          "name": "buyer",
          "type": "address"
        }
      ],
      "name": "hasPurchased",
      "outputs": [
        {
          "internalType": "ebool",
          "name": "",
          "type": "bytes32"
        }
      ],
      "stateMutability": "view",
      "type": "function"
    },
    {
      "inputs": [
        {
          "internalType": "bytes32",
          "name": "",
          "type": "bytes32"
        },
        {
          "internalType": "address",
          "name": "",
          "type": "address"
        }
      ],
      "name": "hasRated",
      "outputs": [
        {
          "internalType": "bool",
          "name": "",
          "type": "bool"
        }
      ],
      "stateMutability": "view",
      "type": "function"
    },
    {
      "inputs": [
        {
          "internalType": "bytes32",
          "name": "",
          "type": "bytes32"
        }
      ],
      "name": "listings",
      "outputs": [
        {
          "internalType": "address",
          "name": "seller",
          "type": "address"
        },
        {
          "internalType": "uint256",
          "name": "price",
          "type": "uint256"
        },
        {
          "internalType": "bytes32",
          "name": "blobHash",
          "type": "bytes32"
        },
        {
          "internalType": "bytes32",
          "name": "metadataHash",
          "type": "bytes32"
        },
        {
          "internalType": "bytes32",
          "name": "category",
          "type": "bytes32"
        },
        {
          "internalType": "uint256",
          "name": "rowCount",
          "type": "uint256"
        },
        {
          "internalType": "bytes32",
          "name": "schemaHash",
          "type": "bytes32"
        },
        {
          "internalType": "bytes32",
          "name": "previewBlobHash",
          "type": "bytes32"
        },
        {
          "internalType": "bool",
          "name": "active",
          "type": "bool"
        }
      ],
      "stateMutability": "view",
      "type": "function"
    },
    {
      "inputs": [],
      "name": "poolAddress",
      "outputs": [
        {
          "internalType": "address",
          "name": "",
          "type": "address"
        }
      ],
      "stateMutability": "view",
      "type": "function"
    },
    {
      "inputs": [
        {
          "internalType": "bytes32",
          "name": "",
          "type": "bytes32"
        }
      ],
      "name": "previewRequests",
      "outputs": [
        {
          "internalType": "uint256",
          "name": "",
          "type": "uint256"
        }
      ],
      "stateMutability": "view",
      "type": "function"
    },
    {
      "inputs": [
        {
          "internalType": "bytes32",
          "name": "listingId",
          "type": "bytes32"
        }
      ],
      "name": "purchase",
      "outputs": [],
      "stateMutability": "nonpayable",
      "type": "function"
    },
    {
      "inputs": [
        {
          "internalType": "bytes32",
          "name": "",
          "type": "bytes32"
        }
      ],
      "name": "purchaseCount",
      "outputs": [
        {
          "internalType": "uint256",
          "name": "",
          "type": "uint256"
        }
      ],
      "stateMutability": "view",
      "type": "function"
    },
    {
      "inputs": [
        {
          "internalType": "bytes32",
          "name": "listingId",
          "type": "bytes32"
        },
        {
          "internalType": "uint8",
          "name": "score",
          "type": "uint8"
        }
      ],
      "name": "rateSeller",
      "outputs": [],
      "stateMutability": "nonpayable",
      "type": "function"
    },
    {
      "inputs": [
        {
          "internalType": "bytes32",
          "name": "listingId",
          "type": "bytes32"
        }
      ],
      "name": "requestPreview",
      "outputs": [],
      "stateMutability": "nonpayable",
      "type": "function"
    },
    {
      "inputs": [
        {
          "internalType": "address",
          "name": "",
          "type": "address"
        }
      ],
      "name": "sellerRatingsCount",
      "outputs": [
        {
          "internalType": "uint256",
          "name": "",
          "type": "uint256"
        }
      ],
      "stateMutability": "view",
      "type": "function"
    },
    {
      "inputs": [
        {
          "internalType": "address",
          "name": "",
          "type": "address"
        }
      ],
      "name": "sellerRatingsTotal",
      "outputs": [
        {
          "internalType": "uint256",
          "name": "",
          "type": "uint256"
        }
      ],
      "stateMutability": "view",
      "type": "function"
    },
    {
      "inputs": [],
      "name": "totalListings",
      "outputs": [
        {
          "internalType": "uint256",
          "name": "",
          "type": "uint256"
        }
      ],
      "stateMutability": "view",
      "type": "function"
    },
    {
      "inputs": [
        {
          "internalType": "bytes32",
          "name": "listingId",
          "type": "bytes32"
        },
        {
          "internalType": "uint256",
          "name": "newPrice",
          "type": "uint256"
        }
      ],
      "name": "updateListingPrice",
      "outputs": [],
      "stateMutability": "nonpayable",
      "type": "function"
    },
    {
      "inputs": [],
      "name": "usdc",
      "outputs": [
        {
          "internalType": "contract IERC20",
          "name": "",
          "type": "address"
        }
      ],
      "stateMutability": "view",
      "type": "function"
    }
  ],
  "bytecode": "0x60c060405234801561000f575f80fd5b50604051612a4d380380612a4d833981810160405281019061003191906100fe565b8173ffffffffffffffffffffffffffffffffffffffff1660808173ffffffffffffffffffffffffffffffffffffffff16815250508073ffffffffffffffffffffffffffffffffffffffff1660a08173ffffffffffffffffffffffffffffffffffffffff1681525050505061013c565b5f80fd5b5f73ffffffffffffffffffffffffffffffffffffffff82169050919050565b5f6100cd826100a4565b9050919050565b6100dd816100c3565b81146100e7575f80fd5b50565b5f815190506100f8816100d4565b92915050565b5f8060408385031215610114576101136100a0565b5b5f610121858286016100ea565b9250506020610132858286016100ea565b9150509250929050565b60805160a0516128db6101725f395f81816104f6015261095e01525f81816106e001528181610921015261126601526128db5ff3fe608060405234801561000f575f80fd5b5060043610610135575f3560e01c8063489d9d5a116100b65780639c1932ae1161007a5780639c1932ae14610387578063a08c210a146103b7578063af8b4387146103e7578063c18b8db414610403578063c78b616c1461043b578063cc4456111461045957610135565b8063489d9d5a146102bb5780634eb6f9cc146102d75780636b8e211f146102f3578063711fcc48146103235780639a4ed5fa1461035457610135565b80632226211c116100fd5780632226211c146102175780632d139a1b1461023357806334fbc9a1146102635780633e413bee146102815780633e93d0cd1461029f57610135565b806307658fb114610139578063159bf1af146101695780631755ff211461019957806321197f86146101b7578063220bfb28146101e7575b5f80fd5b610153600480360381019061014e9190611b75565b610475565b6040516101609190611bc0565b60405180910390f35b610183600480360381019061017e9190611c33565b6104ca565b6040516101909190611c8b565b60405180910390f35b6101a16104f4565b6040516101ae9190611cb3565b60405180910390f35b6101d160048036038101906101cc9190611ccc565b610518565b6040516101de9190611d0f565b60405180910390f35b61020160048036038101906101fc9190611ccc565b61052d565b60405161020e9190611d0f565b60405180910390f35b610231600480360381019061022c9190611b75565b610542565b005b61024d60048036038101906102489190611c33565b610681565b60405161025a9190611bc0565b60405180910390f35b61026b6106d7565b6040516102789190611d0f565b60405180910390f35b6102896106de565b6040516102969190611d83565b60405180910390f35b6102b960048036038101906102b49190611dc6565b610702565b005b6102d560048036038101906102d09190611e04565b61087d565b005b6102f160048036038101906102ec9190611eeb565b610bdc565b005b61030d60048036038101906103089190611b75565b610f00565b60405161031a9190611d0f565b60405180910390f35b61033d60048036038101906103389190611ccc565b610f15565b60405161034b929190611f29565b60405180910390f35b61036e60048036038101906103699190611b75565b610f9c565b60405161037e9493929190611f50565b60405180910390f35b6103a1600480360381019061039c9190611b75565b61100e565b6040516103ae9190611fa2565b60405180910390f35b6103d160048036038101906103cc9190611b75565b611028565b6040516103de9190611d0f565b60405180910390f35b61040160048036038101906103fc9190611b75565b61103d565b005b61041d60048036038101906104189190611b75565b6110f2565b60405161043299989796959493929190611fca565b60405180910390f35b610443611166565b6040516104509190611d0f565b60405180910390f35b610473600480360381019061046e9190611b75565b61116c565b005b5f60075f8381526020019081526020015f205f3373ffffffffffffffffffffffffffffffffffffffff1673ffffffffffffffffffffffffffffffffffffffff1681526020019081526020015f20549050919050565b6004602052815f5260405f20602052805f5260405f205f915091509054906101000a900460ff1681565b7f000000000000000000000000000000000000000000000000000000000000000081565b6003602052805f5260405f205f915090505481565b6002602052805f5260405f205f915090505481565b5f805f8381526020019081526020015f2090503373ffffffffffffffffffffffffffffffffffffffff16815f015f9054906101000a900473ffffffffffffffffffffffffffffffffffffffff1673ffffffffffffffffffffffffffffffffffffffff16146105e5576040517f08c379a00000000000000000000000000000000000000000000000000000000081526004016105dc906120af565b60405180910390fd5b806008015f9054906101000a900460ff16610635576040517f08c379a000000000000000000000000000000000000000000000000000000000815260040161062c90612117565b60405180910390fd5b5f816008015f6101000a81548160ff021916908315150217905550817f44e33a1c6ffba002862f4db87e466f40a01fb65b968e8725a9394bfd44a45e6060405160405180910390a25050565b5f60075f8481526020019081526020015f205f8373ffffffffffffffffffffffffffffffffffffffff1673ffffffffffffffffffffffffffffffffffffffff1681526020019081526020015f2054905092915050565b620f424081565b7f000000000000000000000000000000000000000000000000000000000000000081565b5f805f8481526020019081526020015f2090503373ffffffffffffffffffffffffffffffffffffffff16815f015f9054906101000a900473ffffffffffffffffffffffffffffffffffffffff1673ffffffffffffffffffffffffffffffffffffffff16146107a5576040517f08c379a000000000000000000000000000000000000000000000000000000000815260040161079c906120af565b60405180910390fd5b806008015f9054906101000a900460ff166107f5576040517f08c379a00000000000000000000000000000000000000000000000000000000081526004016107ec9061217f565b60405180910390fd5b5f8211610837576040517f08c379a000000000000000000000000000000000000000000000000000000000815260040161082e906121e7565b60405180910390fd5b818160010181905550827f46eec4e0eeeef5830de3472bb39db7e52b1c809286dc87c4b85b20e003cc70c3836040516108709190611d0f565b60405180910390a2505050565b5f86116108bf576040517f08c379a00000000000000000000000000000000000000000000000000000000081526004016108b6906121e7565b60405180910390fd5b5f808981526020019081526020015f206008015f9054906101000a900460ff161561091f576040517f08c379a00000000000000000000000000000000000000000000000000000000081526004016109169061224f565b60405180910390fd5b7f000000000000000000000000000000000000000000000000000000000000000073ffffffffffffffffffffffffffffffffffffffff166323b872dd337f0000000000000000000000000000000000000000000000000000000000000000620f42406040518463ffffffff1660e01b815260040161099f9392919061226d565b6020604051808303815f875af11580156109bb573d5f803e3d5ffd5b505050506040513d601f19601f820116820180604052508101906109df91906122cc565b610a1e576040517f08c379a0000000000000000000000000000000000000000000000000000000008152600401610a1590612341565b60405180910390fd5b6040518061012001604052803373ffffffffffffffffffffffffffffffffffffffff168152602001878152602001888152602001868152602001858152602001848152602001838152602001828152602001600115158152505f808a81526020019081526020015f205f820151815f015f6101000a81548173ffffffffffffffffffffffffffffffffffffffff021916908373ffffffffffffffffffffffffffffffffffffffff1602179055506020820151816001015560408201518160020155606082015181600301556080820151816004015560a0820151816005015560c0820151816006015560e08201518160070155610100820151816008015f6101000a81548160ff021916908315150217905550905050610b3d5f61152b565b60085f8a81526020019081526020015f2081905550610b6c60085f8a81526020019081526020015f205461153d565b60065f815480929190610b7e9061238c565b91905055503373ffffffffffffffffffffffffffffffffffffffff16887fbd4396647352c992c903aa8288e2b331cdba1cb1b0370b35da8fb08d027afda288604051610bca9190611d0f565b60405180910390a35050505050505050565b60018160ff1610158015610bf4575060058160ff1611155b610c33576040517f08c379a0000000000000000000000000000000000000000000000000000000008152600401610c2a9061241d565b60405180910390fd5b610c8860075f8481526020019081526020015f205f3373ffffffffffffffffffffffffffffffffffffffff1673ffffffffffffffffffffffffffffffffffffffff1681526020019081526020015f20546115be565b610cc7576040517f08c379a0000000000000000000000000000000000000000000000000000000008152600401610cbe90612485565b60405180910390fd5b60045f8381526020019081526020015f205f3373ffffffffffffffffffffffffffffffffffffffff1673ffffffffffffffffffffffffffffffffffffffff1681526020019081526020015f205f9054906101000a900460ff1615610d60576040517f08c379a0000000000000000000000000000000000000000000000000000000008152600401610d57906124ed565b60405180910390fd5b5f805f8481526020019081526020015f209050600160045f8581526020019081526020015f205f3373ffffffffffffffffffffffffffffffffffffffff1673ffffffffffffffffffffffffffffffffffffffff1681526020019081526020015f205f6101000a81548160ff0219169083151502179055508160ff1660025f835f015f9054906101000a900473ffffffffffffffffffffffffffffffffffffffff1673ffffffffffffffffffffffffffffffffffffffff1673ffffffffffffffffffffffffffffffffffffffff1681526020019081526020015f205f828254610e48919061250b565b9250508190555060035f825f015f9054906101000a900473ffffffffffffffffffffffffffffffffffffffff1673ffffffffffffffffffffffffffffffffffffffff1673ffffffffffffffffffffffffffffffffffffffff1681526020019081526020015f205f815480929190610ebe9061238c565b9190505550827f01e4fbe4bd7c224c6907e0a8deabaa511d38ac35ddc52fde32fa69d4267ad83983604051610ef3919061254d565b60405180910390a2505050565b6001602052805f5260405f205f915090505481565b5f8060025f8473ffffffffffffffffffffffffffffffffffffffff1673ffffffffffffffffffffffffffffffffffffffff1681526020019081526020015f205460035f8573ffffffffffffffffffffffffffffffffffffffff1673ffffffffffffffffffffffffffffffffffffffff1681526020019081526020015f205491509150915091565b5f805f805f805f8781526020019081526020015f209050805f015f9054906101000a900473ffffffffffffffffffffffffffffffffffffffff168160010154826008015f9054906101000a900460ff1660015f8a81526020019081526020015f20549450945094509450509193509193565b5f60085f8381526020019081526020015f20549050919050565b6005602052805f5260405f205f915090505481565b5f808281526020019081526020015f206008015f9054906101000a900460ff1661109c576040517f08c379a00000000000000000000000000000000000000000000000000000000081526004016110939061217f565b60405180910390fd5b60055f8281526020019081526020015f205f8154809291906110bd9061238c565b9190505550807f34c11817b918f7668c986c62bf9d104bafc136da009784cd2c0e0070509e03c260405160405180910390a250565b5f602052805f5260405f205f91509050805f015f9054906101000a900473ffffffffffffffffffffffffffffffffffffffff1690806001015490806002015490806003015490806004015490806005015490806006015490806007015490806008015f9054906101000a900460ff16905089565b60065481565b5f805f8381526020019081526020015f209050806008015f9054906101000a900460ff166111cf576040517f08c379a00000000000000000000000000000000000000000000000000000000081526004016111c69061217f565b60405180910390fd5b61122460075f8481526020019081526020015f205f3373ffffffffffffffffffffffffffffffffffffffff1673ffffffffffffffffffffffffffffffffffffffff1681526020019081526020015f20546115be565b15611264576040517f08c379a000000000000000000000000000000000000000000000000000000000815260040161125b906125b0565b60405180910390fd5b7f000000000000000000000000000000000000000000000000000000000000000073ffffffffffffffffffffffffffffffffffffffff166323b872dd33835f015f9054906101000a900473ffffffffffffffffffffffffffffffffffffffff1684600101546040518463ffffffff1660e01b81526004016112e79392919061226d565b6020604051808303815f875af1158015611303573d5f803e3d5ffd5b505050506040513d601f19601f8201168201806040525081019061132791906122cc565b611366576040517f08c379a000000000000000000000000000000000000000000000000000000000815260040161135d90612618565b60405180910390fd5b61137060016115cf565b60075f8481526020019081526020015f205f3373ffffffffffffffffffffffffffffffffffffffff1673ffffffffffffffffffffffffffffffffffffffff1681526020019081526020015f208190555061141560075f8481526020019081526020015f205f3373ffffffffffffffffffffffffffffffffffffffff1673ffffffffffffffffffffffffffffffffffffffff1681526020019081526020015f20546115e1565b61146a60075f8481526020019081526020015f205f3373ffffffffffffffffffffffffffffffffffffffff1673ffffffffffffffffffffffffffffffffffffffff1681526020019081526020015f2054611662565b5f611478826001015461152b565b905061149560085f8581526020019081526020015f2054826116e3565b60085f8581526020019081526020015f20819055506114c460085f8581526020019081526020015f205461153d565b60015f8481526020019081526020015f205f8154809291906114e59061238c565b9190505550827f77f664b996b5268c61ef67f7e872c5366fb1303d9ff0b5d70bcdd047bc0fb022836001015460405161151e9190611d0f565b60405180910390a2505050565b5f611536825f61172c565b9050919050565b73ea30c4b8b44078bbf8a6ef5b9f1ec1626c7848d973ffffffffffffffffffffffffffffffffffffffff166365d0509c825f1c306040518363ffffffff1660e01b815260040161158e929190612636565b5f604051808303815f87803b1580156115a5575f80fd5b505af11580156115b7573d5f803e3d5ffd5b5050505050565b5f6115c882611746565b9050919050565b5f6115da825f611757565b9050919050565b73ea30c4b8b44078bbf8a6ef5b9f1ec1626c7848d973ffffffffffffffffffffffffffffffffffffffff166365d0509c825f1c306040518363ffffffff1660e01b8152600401611632929190612636565b5f604051808303815f87803b158015611649575f80fd5b505af115801561165b573d5f803e3d5ffd5b5050505050565b73ea30c4b8b44078bbf8a6ef5b9f1ec1626c7848d973ffffffffffffffffffffffffffffffffffffffff166365d0509c825f1c336040518363ffffffff1660e01b81526004016116b3929190612636565b5f604051808303815f87803b1580156116ca575f80fd5b505af11580156116dc573d5f803e3d5ffd5b5050505050565b5f6116ed83611780565b6116fd576116fa5f61152b565b92505b61170682611780565b611716576117135f61152b565b91505b611724600684846008611791565b905092915050565b5f8061173a84600685611882565b90508091505092915050565b5f6117508261197f565b9050919050565b5f805f9050831561176757600190505b5f611773825f86611882565b9050809250505092915050565b5f61178a8261197f565b9050919050565b5f73ea30c4b8b44078bbf8a6ef5b9f1ec1626c7848d973ffffffffffffffffffffffffffffffffffffffff16631888debd86846117ce888861198d565b5f67ffffffffffffffff8111156117e8576117e761265d565b5b6040519080825280602002602001820160405280156118165781602001602082028036833780820191505090505b506040518563ffffffff1660e01b815260040161183694939291906127b4565b6020604051808303815f875af1158015611852573d5f803e3d5ffd5b505050506040513d601f19601f820116820180604052508101906118769190612819565b5f1b9050949350505050565b5f73ea30c4b8b44078bbf8a6ef5b9f1ec1626c7848d973ffffffffffffffffffffffffffffffffffffffff16631888debd84601a5f67ffffffffffffffff8111156118d0576118cf61265d565b5b6040519080825280602002602001820160405280156118fe5781602001602082028036833780820191505090505b50611915898960ff166119108a611a2b565b611a82565b6040518563ffffffff1660e01b815260040161193494939291906127b4565b6020604051808303815f875af1158015611950573d5f803e3d5ffd5b505050506040513d601f19601f820116820180604052508101906119749190612819565b5f1b90509392505050565b5f805f1b8214159050919050565b60605f600267ffffffffffffffff8111156119ab576119aa61265d565b5b6040519080825280602002602001820160405280156119d95781602001602082028036833780820191505090505b509050835f1c815f815181106119f2576119f1612844565b5b602002602001018181525050825f1c81600181518110611a1557611a14612844565b5b6020026020010181815250508091505092915050565b5f808260030b1215611a7457816040517f8f568bf8000000000000000000000000000000000000000000000000000000008152600401611a6b919061288c565b60405180910390fd5b8163ffffffff169050919050565b60605f600367ffffffffffffffff811115611aa057611a9f61265d565b5b604051908082528060200260200182016040528015611ace5781602001602082028036833780820191505090505b50905084815f81518110611ae557611ae4612844565b5b6020026020010181815250508381600181518110611b0657611b05612844565b5b6020026020010181815250508281600281518110611b2757611b26612844565b5b602002602001018181525050809150509392505050565b5f80fd5b5f819050919050565b611b5481611b42565b8114611b5e575f80fd5b50565b5f81359050611b6f81611b4b565b92915050565b5f60208284031215611b8a57611b89611b3e565b5b5f611b9784828501611b61565b91505092915050565b5f611baa82611b42565b9050919050565b611bba81611ba0565b82525050565b5f602082019050611bd35f830184611bb1565b92915050565b5f73ffffffffffffffffffffffffffffffffffffffff82169050919050565b5f611c0282611bd9565b9050919050565b611c1281611bf8565b8114611c1c575f80fd5b50565b5f81359050611c2d81611c09565b92915050565b5f8060408385031215611c4957611c48611b3e565b5b5f611c5685828601611b61565b9250506020611c6785828601611c1f565b9150509250929050565b5f8115159050919050565b611c8581611c71565b82525050565b5f602082019050611c9e5f830184611c7c565b92915050565b611cad81611bf8565b82525050565b5f602082019050611cc65f830184611ca4565b92915050565b5f60208284031215611ce157611ce0611b3e565b5b5f611cee84828501611c1f565b91505092915050565b5f819050919050565b611d0981611cf7565b82525050565b5f602082019050611d225f830184611d00565b92915050565b5f819050919050565b5f611d4b611d46611d4184611bd9565b611d28565b611bd9565b9050919050565b5f611d5c82611d31565b9050919050565b5f611d6d82611d52565b9050919050565b611d7d81611d63565b82525050565b5f602082019050611d965f830184611d74565b92915050565b611da581611cf7565b8114611daf575f80fd5b50565b5f81359050611dc081611d9c565b92915050565b5f8060408385031215611ddc57611ddb611b3e565b5b5f611de985828601611b61565b9250506020611dfa85828601611db2565b9150509250929050565b5f805f805f805f80610100898b031215611e2157611e20611b3e565b5b5f611e2e8b828c01611b61565b9850506020611e3f8b828c01611b61565b9750506040611e508b828c01611db2565b9650506060611e618b828c01611b61565b9550506080611e728b828c01611b61565b94505060a0611e838b828c01611db2565b93505060c0611e948b828c01611b61565b92505060e0611ea58b828c01611b61565b9150509295985092959890939650565b5f60ff82169050919050565b611eca81611eb5565b8114611ed4575f80fd5b50565b5f81359050611ee581611ec1565b92915050565b5f8060408385031215611f0157611f00611b3e565b5b5f611f0e85828601611b61565b9250506020611f1f85828601611ed7565b9150509250929050565b5f604082019050611f3c5f830185611d00565b611f496020830184611d00565b9392505050565b5f608082019050611f635f830187611ca4565b611f706020830186611d00565b611f7d6040830185611c7c565b611f8a6060830184611d00565b95945050505050565b611f9c81611ba0565b82525050565b5f602082019050611fb55f830184611f93565b92915050565b611fc481611b42565b82525050565b5f61012082019050611fde5f83018c611ca4565b611feb602083018b611d00565b611ff8604083018a611fbb565b6120056060830189611fbb565b6120126080830188611fbb565b61201f60a0830187611d00565b61202c60c0830186611fbb565b61203960e0830185611fbb565b612047610100830184611c7c565b9a9950505050505050505050565b5f82825260208201905092915050565b7f4e6f74207468652073656c6c65720000000000000000000000000000000000005f82015250565b5f612099600e83612055565b91506120a482612065565b602082019050919050565b5f6020820190508181035f8301526120c68161208d565b9050919050565b7f416c7265616479206465616374697661746564000000000000000000000000005f82015250565b5f612101601383612055565b915061210c826120cd565b602082019050919050565b5f6020820190508181035f83015261212e816120f5565b9050919050565b7f4c697374696e67206e6f742061637469766500000000000000000000000000005f82015250565b5f612169601283612055565b915061217482612135565b602082019050919050565b5f6020820190508181035f8301526121968161215d565b9050919050565b7f5072696365206d757374206265203e20300000000000000000000000000000005f82015250565b5f6121d1601183612055565b91506121dc8261219d565b602082019050919050565b5f6020820190508181035f8301526121fe816121c5565b9050919050565b7f4c697374696e6720616c726561647920657869737473000000000000000000005f82015250565b5f612239601683612055565b915061224482612205565b602082019050919050565b5f6020820190508181035f8301526122668161222d565b9050919050565b5f6060820190506122805f830186611ca4565b61228d6020830185611ca4565b61229a6040830184611d00565b949350505050565b6122ab81611c71565b81146122b5575f80fd5b50565b5f815190506122c6816122a2565b92915050565b5f602082840312156122e1576122e0611b3e565b5b5f6122ee848285016122b8565b91505092915050565b7f466565207472616e73666572206661696c6564000000000000000000000000005f82015250565b5f61232b601383612055565b9150612336826122f7565b602082019050919050565b5f6020820190508181035f8301526123588161231f565b9050919050565b7f4e487b71000000000000000000000000000000000000000000000000000000005f52601160045260245ffd5b5f61239682611cf7565b91507fffffffffffffffffffffffffffffffffffffffffffffffffffffffffffffffff82036123c8576123c761235f565b5b600182019050919050565b7f53636f7265206d75737420626520312d350000000000000000000000000000005f82015250565b5f612407601183612055565b9150612412826123d3565b602082019050919050565b5f6020820190508181035f830152612434816123fb565b9050919050565b7f4d757374207075726368617365206669727374000000000000000000000000005f82015250565b5f61246f601383612055565b915061247a8261243b565b602082019050919050565b5f6020820190508181035f83015261249c81612463565b9050919050565b7f416c7265616479207261746564000000000000000000000000000000000000005f82015250565b5f6124d7600d83612055565b91506124e2826124a3565b602082019050919050565b5f6020820190508181035f830152612504816124cb565b9050919050565b5f61251582611cf7565b915061252083611cf7565b92508282019050808211156125385761253761235f565b5b92915050565b61254781611eb5565b82525050565b5f6020820190506125605f83018461253e565b92915050565b7f416c7265616479207075726368617365640000000000000000000000000000005f82015250565b5f61259a601183612055565b91506125a582612566565b602082019050919050565b5f6020820190508181035f8301526125c78161258e565b9050919050565b7f5061796d656e74206661696c65640000000000000000000000000000000000005f82015250565b5f612602600e83612055565b915061260d826125ce565b602082019050919050565b5f6020820190508181035f83015261262f816125f6565b9050919050565b5f6040820190506126495f830185611d00565b6126566020830184611ca4565b9392505050565b7f4e487b71000000000000000000000000000000000000000000000000000000005f52604160045260245ffd5b7f4e487b71000000000000000000000000000000000000000000000000000000005f52602160045260245ffd5b602081106126c8576126c761268a565b5b50565b5f8190506126d8826126b7565b919050565b5f6126e7826126cb565b9050919050565b6126f7816126dd565b82525050565b5f81519050919050565b5f82825260208201905092915050565b5f819050602082019050919050565b61272f81611cf7565b82525050565b5f6127408383612726565b60208301905092915050565b5f602082019050919050565b5f612762826126fd565b61276c8185612707565b935061277783612717565b805f5b838110156127a757815161278e8882612735565b97506127998361274c565b92505060018101905061277a565b5085935050505092915050565b5f6080820190506127c75f83018761253e565b6127d460208301866126ee565b81810360408301526127e68185612758565b905081810360608301526127fa8184612758565b905095945050505050565b5f8151905061281381611d9c565b92915050565b5f6020828403121561282e5761282d611b3e565b5b5f61283b84828501612805565b91505092915050565b7f4e487b71000000000000000000000000000000000000000000000000000000005f52603260045260245ffd5b5f8160030b9050919050565b61288681612871565b82525050565b5f60208201905061289f5f83018461287d565b9291505056fea264697066735822122018767abf04307ee7c7c11e64f1a66e5f599dbbf7b38bf6ef3eb85a37615f194364736f6c63430008190033",
  "linkReferences": {},
  "deployedLinkReferences": {}
}