{
  "_format": "hh-sol-artifact-1",
  "contractName": "VeilDataMarket",
  "sourceName": "contracts/VeilDataMarket.sol",
  "abi": [
    {
      "inputs": [
        {
          "internalType": "address",
          "name": "_poolAddress",
          "type": "address"
        }
      ],
      "stateMutability": "nonpayable",
      "type": "constructor"
    },
    {
      "anonymous": false,
      "inputs": [
        {
          "indexed": true,
          "internalType": "bytes32",
          "name": "listingId",
          "type": "bytes32"
        },
        {
          "indexed": false,
          "internalType": "address",
          "name": "buyer",
          "type": "address"
        },
        {
          "indexed": false,
          "internalType": "uint256",
          "name": "amount",
          "type": "uint256"
        }
      ],
      "name": "DataPurchased",
      "type": "event"
    },
    {
      "anonymous": false,
      "inputs": [
        {
          "indexed": true,
          "internalType": "bytes32",
          "name": "listingId",
          "type": "bytes32"
        },
        {
          "indexed": true,
          "internalType": "address",
          "name": "seller",
          "type": "address"
        },
        {
          "indexed": false,
          "internalType": "uint256",
          "name": "price",
          "type": "uint256"
        }
      ],
      "name": "ListingCreated",
      "type": "event"
    },
    {
      "anonymous": false,
      "inputs": [
        {
          "indexed": true,
          "internalType": "bytes32",
          "name": "listingId",
          "type": "bytes32"
        }
      ],
      "name": "ListingDeactivated",
      "type": "event"
    },
    {
      "anonymous": false,
      "inputs": [
        {
          "indexed": true,
          "internalType": "bytes32",
          "name": "listingId",
          "type": "bytes32"
        }
      ],
      "name": "PreviewRequested",
      "type": "event"
    },
    {
      "anonymous": false,
      "inputs": [
        {
          "indexed": true,
          "internalType": "bytes32",
          "name": "listingId",
          "type": "bytes32"
        },
        {
          "indexed": false,
          "internalType": "uint256",
          "name": "newPrice",
          "type": "uint256"
        }
      ],
      "name": "PriceUpdated",
      "type": "event"
    },
    {
      "anonymous": false,
      "inputs": [
        {
          "indexed": true,
          "internalType": "bytes32",
          "name": "listingId",
          "type": "bytes32"
        },
        {
          "indexed": false,
          "internalType": "uint8",
          "name": "score",
          "type": "uint8"
        }
      ],
      "name": "SellerRated",
      "type": "event"
    },
    {
      "inputs": [],
      "name": "PLATFORM_FEE",
      "outputs": [
        {
          "internalType": "uint256",
          "name": "",
          "type": "uint256"
        }
      ],
      "stateMutability": "view",
      "type": "function"
    },
    {
      "inputs": [
        {
          "internalType": "bytes32",
          "name": "listingId",
          "type": "bytes32"
        },
        {
          "internalType": "bytes32",
          "name": "blobHash",
          "type": "bytes32"
        },
        {
          "internalType": "uint256",
          "name": "price",
          "type": "uint256"
        },
        {
          "internalType": "bytes32",
          "name": "metadataHash",
          "type": "bytes32"
        },
        {
          "internalType": "bytes32",
          "name": "category",
          "type": "bytes32"
        },
        {
          "internalType": "uint256",
          "name": "rowCount",
          "type": "uint256"
        },
        {
          "internalType": "bytes32",
          "name": "schemaHash",
          "type": "bytes32"
        },
        {
          "internalType": "bytes32",
          "name": "previewBlobHash",
          "type": "bytes32"
        }
      ],
      "name": "createListing",
      "outputs": [],
      "stateMutability": "payable",
      "type": "function"
    },
    {
      "inputs": [
        {
          "internalType": "bytes32",
          "name": "listingId",
          "type": "bytes32"
        }
      ],
      "name": "deactivateListing",
      "outputs": [],
      "stateMutability": "nonpayable",
      "type": "function"
    },
    {
      "inputs": [
        {
          "internalType": "bytes32",
          "name": "listingId",
          "type": "bytes32"
        }
      ],
      "name": "getListingInfo",
      "outputs": [
        {
          "internalType": "address",
          "name": "seller",
          "type": "address"
        },
        {
          "internalType": "uint256",
          "name": "price",
          "type": "uint256"
        },
        {
          "internalType": "bool",
          "name": "active",
          "type": "bool"
        },
        {
          "internalType": "uint256",
          "name": "_purchaseCount",
          "type": "uint256"
        }
      ],
      "stateMutability": "view",
      "type": "function"
    },
    {
      "inputs": [
        {
          "internalType": "address",
          "name": "seller",
          "type": "address"
        }
      ],
      "name": "getSellerRating",
      "outputs": [
        {
          "internalType": "uint256",
          "name": "total",
          "type": "uint256"
        },
        {
          "internalType": "uint256",
          "name": "count",
          "type": "uint256"
        }
      ],
      "stateMutability": "view",
      "type": "function"
    },
    {
      "inputs": [
        {
          "internalType": "bytes32",
          "name": "listingId",
          "type": "bytes32"
        },
        {
          "internalType": "address",
          "name": "buyer",
          "type": "address"
        }
      ],
      "name": "hasPurchased",
      "outputs": [
        {
          "internalType": "bool",
          "name": "",
          "type": "bool"
        }
      ],
      "stateMutability": "view",
      "type": "function"
    },
    {
      "inputs": [
        {
          "internalType": "bytes32",
          "name": "",
          "type": "bytes32"
        },
        {
          "internalType": "address",
          "name": "",
          "type": "address"
        }
      ],
      "name": "hasRated",
      "outputs": [
        {
          "internalType": "bool",
          "name": "",
          "type": "bool"
        }
      ],
      "stateMutability": "view",
      "type": "function"
    },
    {
      "inputs": [
        {
          "internalType": "bytes32",
          "name": "",
          "type": "bytes32"
        }
      ],
      "name": "listings",
      "outputs": [
        {
          "internalType": "address",
          "name": "seller",
          "type": "address"
        },
        {
          "internalType": "uint256",
          "name": "price",
          "type": "uint256"
        },
        {
          "internalType": "bytes32",
          "name": "blobHash",
          "type": "bytes32"
        },
        {
          "internalType": "bytes32",
          "name": "metadataHash",
          "type": "bytes32"
        },
        {
          "internalType": "bytes32",
          "name": "category",
          "type": "bytes32"
        },
        {
          "internalType": "uint256",
          "name": "rowCount",
          "type": "uint256"
        },
        {
          "internalType": "bytes32",
          "name": "schemaHash",
          "type": "bytes32"
        },
        {
          "internalType": "bytes32",
          "name": "previewBlobHash",
          "type": "bytes32"
        },
        {
          "internalType": "bool",
          "name": "active",
          "type": "bool"
        }
      ],
      "stateMutability": "view",
      "type": "function"
    },
    {
      "inputs": [],
      "name": "poolAddress",
      "outputs": [
        {
          "internalType": "address",
          "name": "",
          "type": "address"
        }
      ],
      "stateMutability": "view",
      "type": "function"
    },
    {
      "inputs": [
        {
          "internalType": "bytes32",
          "name": "",
          "type": "bytes32"
        }
      ],
      "name": "previewRequests",
      "outputs": [
        {
          "internalType": "uint256",
          "name": "",
          "type": "uint256"
        }
      ],
      "stateMutability": "view",
      "type": "function"
    },
    {
      "inputs": [
        {
          "internalType": "bytes32",
          "name": "listingId",
          "type": "bytes32"
        }
      ],
      "name": "purchase",
      "outputs": [],
      "stateMutability": "payable",
      "type": "function"
    },
    {
      "inputs": [
        {
          "internalType": "bytes32",
          "name": "",
          "type": "bytes32"
        }
      ],
      "name": "purchaseCount",
      "outputs": [
        {
          "internalType": "uint256",
          "name": "",
          "type": "uint256"
        }
      ],
      "stateMutability": "view",
      "type": "function"
    },
    {
      "inputs": [
        {
          "internalType": "bytes32",
          "name": "",
          "type": "bytes32"
        },
        {
          "internalType": "address",
          "name": "",
          "type": "address"
        }
      ],
      "name": "purchases",
      "outputs": [
        {
          "internalType": "bool",
          "name": "",
          "type": "bool"
        }
      ],
      "stateMutability": "view",
      "type": "function"
    },
    {
      "inputs": [
        {
          "internalType": "bytes32",
          "name": "listingId",
          "type": "bytes32"
        },
        {
          "internalType": "uint8",
          "name": "score",
          "type": "uint8"
        }
      ],
      "name": "rateSeller",
      "outputs": [],
      "stateMutability": "nonpayable",
      "type": "function"
    },
    {
      "inputs": [
        {
          "internalType": "bytes32",
          "name": "listingId",
          "type": "bytes32"
        }
      ],
      "name": "requestPreview",
      "outputs": [],
      "stateMutability": "nonpayable",
      "type": "function"
    },
    {
      "inputs": [
        {
          "internalType": "address",
          "name": "",
          "type": "address"
        }
      ],
      "name": "sellerRatingsCount",
      "outputs": [
        {
          "internalType": "uint256",
          "name": "",
          "type": "uint256"
        }
      ],
      "stateMutability": "view",
      "type": "function"
    },
    {
      "inputs": [
        {
          "internalType": "address",
          "name": "",
          "type": "address"
        }
      ],
      "name": "sellerRatingsTotal",
      "outputs": [
        {
          "internalType": "uint256",
          "name": "",
          "type": "uint256"
        }
      ],
      "stateMutability": "view",
      "type": "function"
    },
    {
      "inputs": [],
      "name": "totalListings",
      "outputs": [
        {
          "internalType": "uint256",
          "name": "",
          "type": "uint256"
        }
      ],
      "stateMutability": "view",
      "type": "function"
    },
    {
      "inputs": [
        {
          "internalType": "bytes32",
          "name": "listingId",
          "type": "bytes32"
        },
        {
          "internalType": "uint256",
          "name": "newPrice",
          "type": "uint256"
        }
      ],
      "name": "updateListingPrice",
      "outputs": [],
      "stateMutability": "nonpayable",
      "type": "function"
    }
  ],
  "bytecode": "0x60a06040523480156200001157600080fd5b5060405162002164380380620021648339818101604052810190620000379190620000dc565b8073ffffffffffffffffffffffffffffffffffffffff1660808173ffffffffffffffffffffffffffffffffffffffff1681525050506200010e565b600080fd5b600073ffffffffffffffffffffffffffffffffffffffff82169050919050565b6000620000a48262000077565b9050919050565b620000b68162000097565b8114620000c257600080fd5b50565b600081519050620000d681620000ab565b92915050565b600060208284031215620000f557620000f462000072565b5b60006200010584828501620000c5565b91505092915050565b60805161203362000131600039600081816105440152610afa01526120336000f3fe6080604052600436106101145760003560e01c8063489d9d5a116100a0578063a08c210a11610064578063a08c210a146103f2578063af8b43871461042f578063c18b8db414610458578063c78b616c1461049d578063cc445611146104c857610114565b8063489d9d5a146102f25780634eb6f9cc1461030e5780636b8e211f14610337578063711fcc48146103745780639a4ed5fa146103b257610114565b8063220bfb28116100e7578063220bfb28146101fb5780632226211c146102385780632d139a1b1461026157806334fbc9a11461029e5780633e93d0cd146102c957610114565b806311ae3c5914610119578063159bf1af146101565780631755ff211461019357806321197f86146101be575b600080fd5b34801561012557600080fd5b50610140600480360381019061013b9190611559565b6104e4565b60405161014d91906115b4565b60405180910390f35b34801561016257600080fd5b5061017d60048036038101906101789190611559565b610513565b60405161018a91906115b4565b60405180910390f35b34801561019f57600080fd5b506101a8610542565b6040516101b591906115de565b60405180910390f35b3480156101ca57600080fd5b506101e560048036038101906101e091906115f9565b610566565b6040516101f2919061163f565b60405180910390f35b34801561020757600080fd5b50610222600480360381019061021d91906115f9565b61057e565b60405161022f919061163f565b60405180910390f35b34801561024457600080fd5b5061025f600480360381019061025a919061165a565b610596565b005b34801561026d57600080fd5b5061028860048036038101906102839190611559565b6106dd565b60405161029591906115b4565b60405180910390f35b3480156102aa57600080fd5b506102b3610745565b6040516102c0919061163f565b60405180910390f35b3480156102d557600080fd5b506102f060048036038101906102eb91906116b3565b610750565b005b61030c600480360381019061030791906116f3565b6108d2565b005b34801561031a57600080fd5b50610335600480360381019061033091906117e2565b610c1c565b005b34801561034357600080fd5b5061035e6004803603810190610359919061165a565b610f60565b60405161036b919061163f565b60405180910390f35b34801561038057600080fd5b5061039b600480360381019061039691906115f9565b610f78565b6040516103a9929190611822565b60405180910390f35b3480156103be57600080fd5b506103d960048036038101906103d4919061165a565b611004565b6040516103e9949392919061184b565b60405180910390f35b3480156103fe57600080fd5b506104196004803603810190610414919061165a565b611080565b604051610426919061163f565b60405180910390f35b34801561043b57600080fd5b506104566004803603810190610451919061165a565b611098565b005b34801561046457600080fd5b5061047f600480360381019061047a919061165a565b611153565b6040516104949998979695949392919061189f565b60405180910390f35b3480156104a957600080fd5b506104b26111ce565b6040516104bf919061163f565b60405180910390f35b6104e260048036038101906104dd919061165a565b6111d4565b005b60016020528160005260406000206020528060005260406000206000915091509054906101000a900460ff1681565b60056020528160005260406000206020528060005260406000206000915091509054906101000a900460ff1681565b7f000000000000000000000000000000000000000000000000000000000000000081565b60046020528060005260406000206000915090505481565b60036020528060005260406000206000915090505481565b600080600083815260200190815260200160002090503373ffffffffffffffffffffffffffffffffffffffff168160000160009054906101000a900473ffffffffffffffffffffffffffffffffffffffff1673ffffffffffffffffffffffffffffffffffffffff161461063e576040517f08c379a000000000000000000000000000000000000000000000000000000000815260040161063590611989565b60405180910390fd5b8060080160009054906101000a900460ff1661068f576040517f08c379a0000000000000000000000000000000000000000000000000000000008152600401610686906119f5565b60405180910390fd5b60008160080160006101000a81548160ff021916908315150217905550817f44e33a1c6ffba002862f4db87e466f40a01fb65b968e8725a9394bfd44a45e6060405160405180910390a25050565b60006001600084815260200190815260200160002060008373ffffffffffffffffffffffffffffffffffffffff1673ffffffffffffffffffffffffffffffffffffffff16815260200190815260200160002060009054906101000a900460ff16905092915050565b66038d7ea4c6800081565b600080600084815260200190815260200160002090503373ffffffffffffffffffffffffffffffffffffffff168160000160009054906101000a900473ffffffffffffffffffffffffffffffffffffffff1673ffffffffffffffffffffffffffffffffffffffff16146107f8576040517f08c379a00000000000000000000000000000000000000000000000000000000081526004016107ef90611989565b60405180910390fd5b8060080160009054906101000a900460ff16610849576040517f08c379a000000000000000000000000000000000000000000000000000000000815260040161084090611a61565b60405180910390fd5b6000821161088c576040517f08c379a000000000000000000000000000000000000000000000000000000000815260040161088390611acd565b60405180910390fd5b818160010181905550827f46eec4e0eeeef5830de3472bb39db7e52b1c809286dc87c4b85b20e003cc70c3836040516108c5919061163f565b60405180910390a2505050565b66038d7ea4c6800034101561091c576040517f08c379a000000000000000000000000000000000000000000000000000000000815260040161091390611b39565b60405180910390fd5b6000861161095f576040517f08c379a000000000000000000000000000000000000000000000000000000000815260040161095690611acd565b60405180910390fd5b60008089815260200190815260200160002060080160009054906101000a900460ff16156109c2576040517f08c379a00000000000000000000000000000000000000000000000000000000081526004016109b990611ba5565b60405180910390fd5b6040518061012001604052803373ffffffffffffffffffffffffffffffffffffffff168152602001878152602001888152602001868152602001858152602001848152602001838152602001828152602001600115158152506000808a815260200190815260200160002060008201518160000160006101000a81548173ffffffffffffffffffffffffffffffffffffffff021916908373ffffffffffffffffffffffffffffffffffffffff1602179055506020820151816001015560408201518160020155606082015181600301556080820151816004015560a0820151816005015560c0820151816006015560e082015181600701556101008201518160080160006101000a81548160ff02191690831515021790555090505060076000815480929190610af190611bf4565b919050555060007f000000000000000000000000000000000000000000000000000000000000000073ffffffffffffffffffffffffffffffffffffffff1634604051610b3c90611c6d565b60006040518083038185875af1925050503d8060008114610b79576040519150601f19603f3d011682016040523d82523d6000602084013e610b7e565b606091505b5050905080610bc2576040517f08c379a0000000000000000000000000000000000000000000000000000000008152600401610bb990611cce565b60405180910390fd5b3373ffffffffffffffffffffffffffffffffffffffff16897fbd4396647352c992c903aa8288e2b331cdba1cb1b0370b35da8fb08d027afda289604051610c09919061163f565b60405180910390a3505050505050505050565b60018160ff1610158015610c34575060058160ff1611155b610c73576040517f08c379a0000000000000000000000000000000000000000000000000000000008152600401610c6a90611d3a565b60405180910390fd5b6001600083815260200190815260200160002060003373ffffffffffffffffffffffffffffffffffffffff1673ffffffffffffffffffffffffffffffffffffffff16815260200190815260200160002060009054906101000a900460ff16610d10576040517f08c379a0000000000000000000000000000000000000000000000000000000008152600401610d0790611da6565b60405180910390fd5b6005600083815260200190815260200160002060003373ffffffffffffffffffffffffffffffffffffffff1673ffffffffffffffffffffffffffffffffffffffff16815260200190815260200160002060009054906101000a900460ff1615610dae576040517f08c379a0000000000000000000000000000000000000000000000000000000008152600401610da590611e12565b60405180910390fd5b6000806000848152602001908152602001600020905060016005600085815260200190815260200160002060003373ffffffffffffffffffffffffffffffffffffffff1673ffffffffffffffffffffffffffffffffffffffff16815260200190815260200160002060006101000a81548160ff0219169083151502179055508160ff16600360008360000160009054906101000a900473ffffffffffffffffffffffffffffffffffffffff1673ffffffffffffffffffffffffffffffffffffffff1673ffffffffffffffffffffffffffffffffffffffff1681526020019081526020016000206000828254610ea39190611e32565b92505081905550600460008260000160009054906101000a900473ffffffffffffffffffffffffffffffffffffffff1673ffffffffffffffffffffffffffffffffffffffff1673ffffffffffffffffffffffffffffffffffffffff1681526020019081526020016000206000815480929190610f1e90611bf4565b9190505550827f01e4fbe4bd7c224c6907e0a8deabaa511d38ac35ddc52fde32fa69d4267ad83983604051610f539190611e75565b60405180910390a2505050565b60026020528060005260406000206000915090505481565b600080600360008473ffffffffffffffffffffffffffffffffffffffff1673ffffffffffffffffffffffffffffffffffffffff16815260200190815260200160002054600460008573ffffffffffffffffffffffffffffffffffffffff1673ffffffffffffffffffffffffffffffffffffffff1681526020019081526020016000205491509150915091565b600080600080600080600087815260200190815260200160002090508060000160009054906101000a900473ffffffffffffffffffffffffffffffffffffffff1681600101548260080160009054906101000a900460ff16600260008a8152602001908152602001600020549450945094509450509193509193565b60066020528060005260406000206000915090505481565b60008082815260200190815260200160002060080160009054906101000a900460ff166110fa576040517f08c379a00000000000000000000000000000000000000000000000000000000081526004016110f190611a61565b60405180910390fd5b60066000828152602001908152602001600020600081548092919061111e90611bf4565b9190505550807f34c11817b918f7668c986c62bf9d104bafc136da009784cd2c0e0070509e03c260405160405180910390a250565b60006020528060005260406000206000915090508060000160009054906101000a900473ffffffffffffffffffffffffffffffffffffffff16908060010154908060020154908060030154908060040154908060050154908060060154908060070154908060080160009054906101000a900460ff16905089565b60075481565b600080600083815260200190815260200160002090508060080160009054906101000a900460ff1661123b576040517f08c379a000000000000000000000000000000000000000000000000000000000815260040161123290611a61565b60405180910390fd5b8060010154341015611282576040517f08c379a000000000000000000000000000000000000000000000000000000000815260040161127990611edc565b60405180910390fd5b6001600083815260200190815260200160002060003373ffffffffffffffffffffffffffffffffffffffff1673ffffffffffffffffffffffffffffffffffffffff16815260200190815260200160002060009054906101000a900460ff1615611320576040517f08c379a000000000000000000000000000000000000000000000000000000000815260040161131790611f48565b60405180910390fd5b600180600084815260200190815260200160002060003373ffffffffffffffffffffffffffffffffffffffff1673ffffffffffffffffffffffffffffffffffffffff16815260200190815260200160002060006101000a81548160ff0219169083151502179055506002600083815260200190815260200160002060008154809291906113ac90611bf4565b919050555060008160000160009054906101000a900473ffffffffffffffffffffffffffffffffffffffff1673ffffffffffffffffffffffffffffffffffffffff16346040516113fb90611c6d565b60006040518083038185875af1925050503d8060008114611438576040519150601f19603f3d011682016040523d82523d6000602084013e61143d565b606091505b5050905080611481576040517f08c379a000000000000000000000000000000000000000000000000000000000815260040161147890611fb4565b60405180910390fd5b827fc776005376a22edd91c130b435664427f20b6603c25bc7792887dd5490fae04133346040516114b3929190611fd4565b60405180910390a2505050565b600080fd5b6000819050919050565b6114d8816114c5565b81146114e357600080fd5b50565b6000813590506114f5816114cf565b92915050565b600073ffffffffffffffffffffffffffffffffffffffff82169050919050565b6000611526826114fb565b9050919050565b6115368161151b565b811461154157600080fd5b50565b6000813590506115538161152d565b92915050565b600080604083850312156115705761156f6114c0565b5b600061157e858286016114e6565b925050602061158f85828601611544565b9150509250929050565b60008115159050919050565b6115ae81611599565b82525050565b60006020820190506115c960008301846115a5565b92915050565b6115d88161151b565b82525050565b60006020820190506115f360008301846115cf565b92915050565b60006020828403121561160f5761160e6114c0565b5b600061161d84828501611544565b91505092915050565b6000819050919050565b61163981611626565b82525050565b60006020820190506116546000830184611630565b92915050565b6000602082840312156116705761166f6114c0565b5b600061167e848285016114e6565b91505092915050565b61169081611626565b811461169b57600080fd5b50565b6000813590506116ad81611687565b92915050565b600080604083850312156116ca576116c96114c0565b5b60006116d8858286016114e6565b92505060206116e98582860161169e565b9150509250929050565b600080600080600080600080610100898b031215611714576117136114c0565b5b60006117228b828c016114e6565b98505060206117338b828c016114e6565b97505060406117448b828c0161169e565b96505060606117558b828c016114e6565b95505060806117668b828c016114e6565b94505060a06117778b828c0161169e565b93505060c06117888b828c016114e6565b92505060e06117998b828c016114e6565b9150509295985092959890939650565b600060ff82169050919050565b6117bf816117a9565b81146117ca57600080fd5b50565b6000813590506117dc816117b6565b92915050565b600080604083850312156117f9576117f86114c0565b5b6000611807858286016114e6565b9250506020611818858286016117cd565b9150509250929050565b60006040820190506118376000830185611630565b6118446020830184611630565b9392505050565b600060808201905061186060008301876115cf565b61186d6020830186611630565b61187a60408301856115a5565b6118876060830184611630565b95945050505050565b611899816114c5565b82525050565b6000610120820190506118b5600083018c6115cf565b6118c2602083018b611630565b6118cf604083018a611890565b6118dc6060830189611890565b6118e96080830188611890565b6118f660a0830187611630565b61190360c0830186611890565b61191060e0830185611890565b61191e6101008301846115a5565b9a9950505050505050505050565b600082825260208201905092915050565b7f4e6f74207468652073656c6c6572000000000000000000000000000000000000600082015250565b6000611973600e8361192c565b915061197e8261193d565b602082019050919050565b600060208201905081810360008301526119a281611966565b9050919050565b7f416c726561647920646561637469766174656400000000000000000000000000600082015250565b60006119df60138361192c565b91506119ea826119a9565b602082019050919050565b60006020820190508181036000830152611a0e816119d2565b9050919050565b7f4c697374696e67206e6f74206163746976650000000000000000000000000000600082015250565b6000611a4b60128361192c565b9150611a5682611a15565b602082019050919050565b60006020820190508181036000830152611a7a81611a3e565b9050919050565b7f5072696365206d757374206265203e2030000000000000000000000000000000600082015250565b6000611ab760118361192c565b9150611ac282611a81565b602082019050919050565b60006020820190508181036000830152611ae681611aaa565b9050919050565b7f496e73756666696369656e7420706c6174666f726d2066656500000000000000600082015250565b6000611b2360198361192c565b9150611b2e82611aed565b602082019050919050565b60006020820190508181036000830152611b5281611b16565b9050919050565b7f4c697374696e6720616c72656164792065786973747300000000000000000000600082015250565b6000611b8f60168361192c565b9150611b9a82611b59565b602082019050919050565b60006020820190508181036000830152611bbe81611b82565b9050919050565b7f4e487b7100000000000000000000000000000000000000000000000000000000600052601160045260246000fd5b6000611bff82611626565b91507fffffffffffffffffffffffffffffffffffffffffffffffffffffffffffffffff8203611c3157611c30611bc5565b5b600182019050919050565b600081905092915050565b50565b6000611c57600083611c3c565b9150611c6282611c47565b600082019050919050565b6000611c7882611c4a565b9150819050919050565b7f466565207472616e73666572206661696c656400000000000000000000000000600082015250565b6000611cb860138361192c565b9150611cc382611c82565b602082019050919050565b60006020820190508181036000830152611ce781611cab565b9050919050565b7f53636f7265206d75737420626520312d35000000000000000000000000000000600082015250565b6000611d2460118361192c565b9150611d2f82611cee565b602082019050919050565b60006020820190508181036000830152611d5381611d17565b9050919050565b7f4d75737420707572636861736520666972737400000000000000000000000000600082015250565b6000611d9060138361192c565b9150611d9b82611d5a565b602082019050919050565b60006020820190508181036000830152611dbf81611d83565b9050919050565b7f416c726561647920726174656400000000000000000000000000000000000000600082015250565b6000611dfc600d8361192c565b9150611e0782611dc6565b602082019050919050565b60006020820190508181036000830152611e2b81611def565b9050919050565b6000611e3d82611626565b9150611e4883611626565b9250828201905080821115611e6057611e5f611bc5565b5b92915050565b611e6f816117a9565b82525050565b6000602082019050611e8a6000830184611e66565b92915050565b7f496e73756666696369656e74207061796d656e74000000000000000000000000600082015250565b6000611ec660148361192c565b9150611ed182611e90565b602082019050919050565b60006020820190508181036000830152611ef581611eb9565b9050919050565b7f416c726561647920707572636861736564000000000000000000000000000000600082015250565b6000611f3260118361192c565b9150611f3d82611efc565b602082019050919050565b60006020820190508181036000830152611f6181611f25565b9050919050565b7f5061796d656e74207472616e73666572206661696c6564000000000000000000600082015250565b6000611f9e60178361192c565b9150611fa982611f68565b602082019050919050565b60006020820190508181036000830152611fcd81611f91565b9050919050565b6000604082019050611fe960008301856115cf565b611ff66020830184611630565b939250505056fea2646970667358221220d0c10b1aefb78e86a00437f1b806ba98c7ea4170a44fb25612f659a63e59218d64736f6c63430008180033",
  "linkReferences": {},
  "deployedLinkReferences": {}
}